{
  "contractName": "CryptoCharacter",
  "abi": [
    {
      "inputs": [
        {
          "internalType": "string",
          "name": "_name",
          "type": "string"
        },
        {
          "internalType": "string",
          "name": "_symbol",
          "type": "string"
        },
        {
          "internalType": "uint256",
          "name": "_cost",
          "type": "uint256"
        }
      ],
      "stateMutability": "nonpayable",
      "type": "constructor"
    },
    {
      "anonymous": false,
      "inputs": [
        {
          "indexed": true,
          "internalType": "address",
          "name": "owner",
          "type": "address"
        },
        {
          "indexed": true,
          "internalType": "address",
          "name": "approved",
          "type": "address"
        },
        {
          "indexed": true,
          "internalType": "uint256",
          "name": "tokenId",
          "type": "uint256"
        }
      ],
      "name": "Approval",
      "type": "event"
    },
    {
      "anonymous": false,
      "inputs": [
        {
          "indexed": true,
          "internalType": "address",
          "name": "owner",
          "type": "address"
        },
        {
          "indexed": true,
          "internalType": "address",
          "name": "operator",
          "type": "address"
        },
        {
          "indexed": false,
          "internalType": "bool",
          "name": "approved",
          "type": "bool"
        }
      ],
      "name": "ApprovalForAll",
      "type": "event"
    },
    {
      "anonymous": false,
      "inputs": [
        {
          "indexed": true,
          "internalType": "address",
          "name": "from",
          "type": "address"
        },
        {
          "indexed": true,
          "internalType": "address",
          "name": "to",
          "type": "address"
        },
        {
          "indexed": true,
          "internalType": "uint256",
          "name": "tokenId",
          "type": "uint256"
        }
      ],
      "name": "Transfer",
      "type": "event"
    },
    {
      "inputs": [
        {
          "internalType": "address",
          "name": "to",
          "type": "address"
        },
        {
          "internalType": "uint256",
          "name": "tokenId",
          "type": "uint256"
        }
      ],
      "name": "approve",
      "outputs": [],
      "stateMutability": "nonpayable",
      "type": "function"
    },
    {
      "inputs": [
        {
          "internalType": "address",
          "name": "owner",
          "type": "address"
        }
      ],
      "name": "balanceOf",
      "outputs": [
        {
          "internalType": "uint256",
          "name": "",
          "type": "uint256"
        }
      ],
      "stateMutability": "view",
      "type": "function",
      "constant": true
    },
    {
      "inputs": [
        {
          "internalType": "uint256",
          "name": "",
          "type": "uint256"
        }
      ],
      "name": "characters",
      "outputs": [
        {
          "internalType": "string",
          "name": "name",
          "type": "string"
        },
        {
          "internalType": "address",
          "name": "owner",
          "type": "address"
        },
        {
          "internalType": "string",
          "name": "img",
          "type": "string"
        }
      ],
      "stateMutability": "view",
      "type": "function",
      "constant": true
    },
    {
      "inputs": [],
      "name": "cost",
      "outputs": [
        {
          "internalType": "uint256",
          "name": "",
          "type": "uint256"
        }
      ],
      "stateMutability": "view",
      "type": "function",
      "constant": true
    },
    {
      "inputs": [
        {
          "internalType": "uint256",
          "name": "tokenId",
          "type": "uint256"
        }
      ],
      "name": "getApproved",
      "outputs": [
        {
          "internalType": "address",
          "name": "",
          "type": "address"
        }
      ],
      "stateMutability": "view",
      "type": "function",
      "constant": true
    },
    {
      "inputs": [
        {
          "internalType": "address",
          "name": "owner",
          "type": "address"
        },
        {
          "internalType": "address",
          "name": "operator",
          "type": "address"
        }
      ],
      "name": "isApprovedForAll",
      "outputs": [
        {
          "internalType": "bool",
          "name": "",
          "type": "bool"
        }
      ],
      "stateMutability": "view",
      "type": "function",
      "constant": true
    },
    {
      "inputs": [],
      "name": "maxSupply",
      "outputs": [
        {
          "internalType": "uint256",
          "name": "",
          "type": "uint256"
        }
      ],
      "stateMutability": "view",
      "type": "function",
      "constant": true
    },
    {
      "inputs": [],
      "name": "name",
      "outputs": [
        {
          "internalType": "string",
          "name": "",
          "type": "string"
        }
      ],
      "stateMutability": "view",
      "type": "function",
      "constant": true
    },
    {
      "inputs": [
        {
          "internalType": "uint256",
          "name": "tokenId",
          "type": "uint256"
        }
      ],
      "name": "ownerOf",
      "outputs": [
        {
          "internalType": "address",
          "name": "",
          "type": "address"
        }
      ],
      "stateMutability": "view",
      "type": "function",
      "constant": true
    },
    {
      "inputs": [
        {
          "internalType": "address",
          "name": "from",
          "type": "address"
        },
        {
          "internalType": "address",
          "name": "to",
          "type": "address"
        },
        {
          "internalType": "uint256",
          "name": "tokenId",
          "type": "uint256"
        }
      ],
      "name": "safeTransferFrom",
      "outputs": [],
      "stateMutability": "nonpayable",
      "type": "function"
    },
    {
      "inputs": [
        {
          "internalType": "address",
          "name": "from",
          "type": "address"
        },
        {
          "internalType": "address",
          "name": "to",
          "type": "address"
        },
        {
          "internalType": "uint256",
          "name": "tokenId",
          "type": "uint256"
        },
        {
          "internalType": "bytes",
          "name": "data",
          "type": "bytes"
        }
      ],
      "name": "safeTransferFrom",
      "outputs": [],
      "stateMutability": "nonpayable",
      "type": "function"
    },
    {
      "inputs": [
        {
          "internalType": "address",
          "name": "operator",
          "type": "address"
        },
        {
          "internalType": "bool",
          "name": "approved",
          "type": "bool"
        }
      ],
      "name": "setApprovalForAll",
      "outputs": [],
      "stateMutability": "nonpayable",
      "type": "function"
    },
    {
      "inputs": [
        {
          "internalType": "bytes4",
          "name": "interfaceId",
          "type": "bytes4"
        }
      ],
      "name": "supportsInterface",
      "outputs": [
        {
          "internalType": "bool",
          "name": "",
          "type": "bool"
        }
      ],
      "stateMutability": "view",
      "type": "function",
      "constant": true
    },
    {
      "inputs": [],
      "name": "symbol",
      "outputs": [
        {
          "internalType": "string",
          "name": "",
          "type": "string"
        }
      ],
      "stateMutability": "view",
      "type": "function",
      "constant": true
    },
    {
      "inputs": [
        {
          "internalType": "uint256",
          "name": "tokenId",
          "type": "uint256"
        }
      ],
      "name": "tokenURI",
      "outputs": [
        {
          "internalType": "string",
          "name": "",
          "type": "string"
        }
      ],
      "stateMutability": "view",
      "type": "function",
      "constant": true
    },
    {
      "inputs": [
        {
          "internalType": "address",
          "name": "from",
          "type": "address"
        },
        {
          "internalType": "address",
          "name": "to",
          "type": "address"
        },
        {
          "internalType": "uint256",
          "name": "tokenId",
          "type": "uint256"
        }
      ],
      "name": "transferFrom",
      "outputs": [],
      "stateMutability": "nonpayable",
      "type": "function"
    },
    {
      "inputs": [
        {
          "internalType": "uint256",
          "name": "_id",
          "type": "uint256"
        }
      ],
      "name": "mint",
      "outputs": [],
      "stateMutability": "payable",
      "type": "function",
      "payable": true
    },
    {
      "inputs": [
        {
          "internalType": "uint256",
          "name": "_id",
          "type": "uint256"
        }
      ],
      "name": "getCharacter",
      "outputs": [
        {
          "components": [
            {
              "internalType": "string",
              "name": "name",
              "type": "string"
            },
            {
              "internalType": "address",
              "name": "owner",
              "type": "address"
            },
            {
              "internalType": "string",
              "name": "img",
              "type": "string"
            }
          ],
          "internalType": "struct CryptoCharacter.Character",
          "name": "",
          "type": "tuple"
        }
      ],
      "stateMutability": "view",
      "type": "function",
      "constant": true
    },
    {
      "inputs": [],
      "name": "getCharacters",
      "outputs": [
        {
          "components": [
            {
              "internalType": "string",
              "name": "name",
              "type": "string"
            },
            {
              "internalType": "address",
              "name": "owner",
              "type": "address"
            },
            {
              "internalType": "string",
              "name": "img",
              "type": "string"
            }
          ],
          "internalType": "struct CryptoCharacter.Character[]",
          "name": "",
          "type": "tuple[]"
        }
      ],
      "stateMutability": "view",
      "type": "function",
      "constant": true
    }
  ],
  "bytecode": "0x6080604052670de0b6b3a764000060065560026007553480156200002257600080fd5b50604051620044c7380380620044c7833981810160405281019062000048919062000f0a565b828281600090805190602001906200006292919062000c82565b5080600190805190602001906200007b92919062000c82565b50505080600681905550600960405180606001604052806040518060400160405280600781526020017f4e69636f6c6173000000000000000000000000000000000000000000000000008152508152602001600073ffffffffffffffffffffffffffffffffffffffff1681526020016040518060600160405280602e81526020016200443d602e9139815250908060018154018082558091505060019003906000526020600020906003020160009091909190915060008201518160000190805190602001906200014e92919062000c82565b5060208201518160010160006101000a81548173ffffffffffffffffffffffffffffffffffffffff021916908373ffffffffffffffffffffffffffffffffffffffff1602179055506040820151816002019080519060200190620001b492919062000c82565b505050600960405180606001604052806040518060400160405280600881526020017f4e69636f6c6173320000000000000000000000000000000000000000000000008152508152602001600073ffffffffffffffffffffffffffffffffffffffff1681526020016040518060600160405280602e815260200162004329602e9139815250908060018154018082558091505060019003906000526020600020906003020160009091909190915060008201518160000190805190602001906200028092919062000c82565b5060208201518160010160006101000a81548173ffffffffffffffffffffffffffffffffffffffff021916908373ffffffffffffffffffffffffffffffffffffffff1602179055506040820151816002019080519060200190620002e692919062000c82565b505050600960405180606001604052806040518060400160405280600981526020017f4775696c6c61756d6500000000000000000000000000000000000000000000008152508152602001600073ffffffffffffffffffffffffffffffffffffffff1681526020016040518060600160405280602e815260200162004357602e913981525090806001815401808255809150506001900390600052602060002090600302016000909190919091506000820151816000019080519060200190620003b292919062000c82565b5060208201518160010160006101000a81548173ffffffffffffffffffffffffffffffffffffffff021916908373ffffffffffffffffffffffffffffffffffffffff16021790555060408201518160020190805190602001906200041892919062000c82565b505050600960405180606001604052806040518060400160405280600a81526020017f4775696c6c61756d6532000000000000000000000000000000000000000000008152508152602001600073ffffffffffffffffffffffffffffffffffffffff1681526020016040518060600160405280602e81526020016200446b602e913981525090806001815401808255809150506001900390600052602060002090600302016000909190919091506000820151816000019080519060200190620004e492919062000c82565b5060208201518160010160006101000a81548173ffffffffffffffffffffffffffffffffffffffff021916908373ffffffffffffffffffffffffffffffffffffffff16021790555060408201518160020190805190602001906200054a92919062000c82565b505050600960405180606001604052806040518060400160405280600681526020017f4761656c6c6500000000000000000000000000000000000000000000000000008152508152602001600073ffffffffffffffffffffffffffffffffffffffff1681526020016040518060600160405280602e815260200162004499602e9139815250908060018154018082558091505060019003906000526020600020906003020160009091909190915060008201518160000190805190602001906200061692919062000c82565b5060208201518160010160006101000a81548173ffffffffffffffffffffffffffffffffffffffff021916908373ffffffffffffffffffffffffffffffffffffffff16021790555060408201518160020190805190602001906200067c92919062000c82565b505050600960405180606001604052806040518060400160405280600781526020017f416e746f696e65000000000000000000000000000000000000000000000000008152508152602001600073ffffffffffffffffffffffffffffffffffffffff1681526020016040518060600160405280602e8152602001620043b3602e9139815250908060018154018082558091505060019003906000526020600020906003020160009091909190915060008201518160000190805190602001906200074892919062000c82565b5060208201518160010160006101000a81548173ffffffffffffffffffffffffffffffffffffffff021916908373ffffffffffffffffffffffffffffffffffffffff1602179055506040820151816002019080519060200190620007ae92919062000c82565b505050600960405180606001604052806040518060400160405280600581526020017f4c796469610000000000000000000000000000000000000000000000000000008152508152602001600073ffffffffffffffffffffffffffffffffffffffff1681526020016040518060600160405280602e815260200162004385602e9139815250908060018154018082558091505060019003906000526020600020906003020160009091909190915060008201518160000190805190602001906200087a92919062000c82565b5060208201518160010160006101000a81548173ffffffffffffffffffffffffffffffffffffffff021916908373ffffffffffffffffffffffffffffffffffffffff1602179055506040820151816002019080519060200190620008e092919062000c82565b505050600960405180606001604052806040518060400160405280600c81526020017f5061756c2d4f6c697669657200000000000000000000000000000000000000008152508152602001600073ffffffffffffffffffffffffffffffffffffffff1681526020016040518060600160405280602e8152602001620042fb602e913981525090806001815401808255809150506001900390600052602060002090600302016000909190919091506000820151816000019080519060200190620009ac92919062000c82565b5060208201518160010160006101000a81548173ffffffffffffffffffffffffffffffffffffffff021916908373ffffffffffffffffffffffffffffffffffffffff160217905550604082015181600201908051906020019062000a1292919062000c82565b505050600960405180606001604052806040518060400160405280600581526020017f527562656e0000000000000000000000000000000000000000000000000000008152508152602001600073ffffffffffffffffffffffffffffffffffffffff1681526020016040518060600160405280602e81526020016200440f602e91398152509080600181540180825580915050600190039060005260206000209060030201600090919091909150600082015181600001908051906020019062000ade92919062000c82565b5060208201518160010160006101000a81548173ffffffffffffffffffffffffffffffffffffffff021916908373ffffffffffffffffffffffffffffffffffffffff160217905550604082015181600201908051906020019062000b4492919062000c82565b505050600960405180606001604052806040518060400160405280600581526020017f4a756c65730000000000000000000000000000000000000000000000000000008152508152602001600073ffffffffffffffffffffffffffffffffffffffff1681526020016040518060600160405280602e8152602001620043e1602e91398152509080600181540180825580915050600190039060005260206000209060030201600090919091909150600082015181600001908051906020019062000c1092919062000c82565b5060208201518160010160006101000a81548173ffffffffffffffffffffffffffffffffffffffff021916908373ffffffffffffffffffffffffffffffffffffffff160217905550604082015181600201908051906020019062000c7692919062000c82565b50505050505062001008565b82805462000c909062000fd3565b90600052602060002090601f01602090048101928262000cb4576000855562000d00565b82601f1062000ccf57805160ff191683800117855562000d00565b8280016001018555821562000d00579182015b8281111562000cff57825182559160200191906001019062000ce2565b5b50905062000d0f919062000d13565b5090565b5b8082111562000d2e57600081600090555060010162000d14565b5090565b6000604051905090565b600080fd5b600080fd5b600080fd5b600080fd5b6000601f19601f8301169050919050565b7f4e487b7100000000000000000000000000000000000000000000000000000000600052604160045260246000fd5b62000d9b8262000d50565b810181811067ffffffffffffffff8211171562000dbd5762000dbc62000d61565b5b80604052505050565b600062000dd262000d32565b905062000de0828262000d90565b919050565b600067ffffffffffffffff82111562000e035762000e0262000d61565b5b62000e0e8262000d50565b9050602081019050919050565b60005b8381101562000e3b57808201518184015260208101905062000e1e565b8381111562000e4b576000848401525b50505050565b600062000e6862000e628462000de5565b62000dc6565b90508281526020810184848401111562000e875762000e8662000d4b565b5b62000e9484828562000e1b565b509392505050565b600082601f83011262000eb45762000eb362000d46565b5b815162000ec684826020860162000e51565b91505092915050565b6000819050919050565b62000ee48162000ecf565b811462000ef057600080fd5b50565b60008151905062000f048162000ed9565b92915050565b60008060006060848603121562000f265762000f2562000d3c565b5b600084015167ffffffffffffffff81111562000f475762000f4662000d41565b5b62000f558682870162000e9c565b935050602084015167ffffffffffffffff81111562000f795762000f7862000d41565b5b62000f878682870162000e9c565b925050604062000f9a8682870162000ef3565b9150509250925092565b7f4e487b7100000000000000000000000000000000000000000000000000000000600052602260045260246000fd5b6000600282049050600182168062000fec57607f821691505b60208210810362001002576200100162000fa4565b5b50919050565b6132e380620010186000396000f3fe6080604052600436106101145760003560e01c806370a08231116100a0578063c87b56dd11610064578063c87b56dd146103b6578063d5abeb01146103f3578063dabb05311461041e578063e985e9c51461045b578063ee1ff4db1461049857610114565b806370a08231146102e057806395d89b411461031d578063a0712d6814610348578063a22cb46514610364578063b88d4fde1461038d57610114565b806313faede6116100e757806313faede6146101e757806323b872dd1461021257806342842e0e1461023b5780634810bc59146102645780636352211e146102a357610114565b806301ffc9a71461011957806306fdde0314610156578063081812fc14610181578063095ea7b3146101be575b600080fd5b34801561012557600080fd5b50610140600480360381019061013b919061211a565b6104c3565b60405161014d9190612162565b60405180910390f35b34801561016257600080fd5b5061016b6105a5565b6040516101789190612216565b60405180910390f35b34801561018d57600080fd5b506101a860048036038101906101a3919061226e565b610637565b6040516101b591906122dc565b60405180910390f35b3480156101ca57600080fd5b506101e560048036038101906101e09190612323565b61067d565b005b3480156101f357600080fd5b506101fc610794565b6040516102099190612372565b60405180910390f35b34801561021e57600080fd5b506102396004803603810190610234919061238d565b61079a565b005b34801561024757600080fd5b50610262600480360381019061025d919061238d565b6107fa565b005b34801561027057600080fd5b5061028b6004803603810190610286919061226e565b61081a565b60405161029a939291906123e0565b60405180910390f35b3480156102af57600080fd5b506102ca60048036038101906102c5919061226e565b610984565b6040516102d791906122dc565b60405180910390f35b3480156102ec57600080fd5b5061030760048036038101906103029190612425565b610a0a565b6040516103149190612372565b60405180910390f35b34801561032957600080fd5b50610332610ac1565b60405161033f9190612216565b60405180910390f35b610362600480360381019061035d919061226e565b610b53565b005b34801561037057600080fd5b5061038b6004803603810190610386919061247e565b610d94565b005b34801561039957600080fd5b506103b460048036038101906103af91906125f3565b610daa565b005b3480156103c257600080fd5b506103dd60048036038101906103d8919061226e565b610e0c565b6040516103ea9190612216565b60405180910390f35b3480156103ff57600080fd5b50610408610e74565b6040516104159190612372565b60405180910390f35b34801561042a57600080fd5b506104456004803603810190610440919061226e565b610e7a565b6040516104529190612726565b60405180910390f35b34801561046757600080fd5b50610482600480360381019061047d9190612748565b61103c565b60405161048f9190612162565b60405180910390f35b3480156104a457600080fd5b506104ad6110d0565b6040516104ba91906128a1565b60405180910390f35b60007f80ac58cd000000000000000000000000000000000000000000000000000000007bffffffffffffffffffffffffffffffffffffffffffffffffffffffff1916827bffffffffffffffffffffffffffffffffffffffffffffffffffffffff1916148061058e57507f5b5e139f000000000000000000000000000000000000000000000000000000007bffffffffffffffffffffffffffffffffffffffffffffffffffffffff1916827bffffffffffffffffffffffffffffffffffffffffffffffffffffffff1916145b8061059e575061059d826112a9565b5b9050919050565b6060600080546105b4906128f2565b80601f01602080910402602001604051908101604052809291908181526020018280546105e0906128f2565b801561062d5780601f106106025761010080835404028352916020019161062d565b820191906000526020600020905b81548152906001019060200180831161061057829003601f168201915b5050505050905090565b600061064282611313565b6004600083815260200190815260200160002060009054906101000a900473ffffffffffffffffffffffffffffffffffffffff169050919050565b600061068882610984565b90508073ffffffffffffffffffffffffffffffffffffffff168373ffffffffffffffffffffffffffffffffffffffff16036106f8576040517f08c379a00000000000000000000000000000000000000000000000000000000081526004016106ef90612995565b60405180910390fd5b8073ffffffffffffffffffffffffffffffffffffffff1661071761135e565b73ffffffffffffffffffffffffffffffffffffffff16148061074657506107458161074061135e565b61103c565b5b610785576040517f08c379a000000000000000000000000000000000000000000000000000000000815260040161077c90612a27565b60405180910390fd5b61078f8383611366565b505050565b60065481565b6107ab6107a561135e565b8261141f565b6107ea576040517f08c379a00000000000000000000000000000000000000000000000000000000081526004016107e190612ab9565b60405180910390fd5b6107f58383836114b4565b505050565b61081583838360405180602001604052806000815250610daa565b505050565b6009818154811061082a57600080fd5b906000526020600020906003020160009150905080600001805461084d906128f2565b80601f0160208091040260200160405190810160405280929190818152602001828054610879906128f2565b80156108c65780601f1061089b576101008083540402835291602001916108c6565b820191906000526020600020905b8154815290600101906020018083116108a957829003601f168201915b5050505050908060010160009054906101000a900473ffffffffffffffffffffffffffffffffffffffff1690806002018054610901906128f2565b80601f016020809104026020016040519081016040528092919081815260200182805461092d906128f2565b801561097a5780601f1061094f5761010080835404028352916020019161097a565b820191906000526020600020905b81548152906001019060200180831161095d57829003601f168201915b5050505050905083565b600080610990836117ad565b9050600073ffffffffffffffffffffffffffffffffffffffff168173ffffffffffffffffffffffffffffffffffffffff1603610a01576040517f08c379a00000000000000000000000000000000000000000000000000000000081526004016109f890612b25565b60405180910390fd5b80915050919050565b60008073ffffffffffffffffffffffffffffffffffffffff168273ffffffffffffffffffffffffffffffffffffffff1603610a7a576040517f08c379a0000000000000000000000000000000000000000000000000000000008152600401610a7190612bb7565b60405180910390fd5b600360008373ffffffffffffffffffffffffffffffffffffffff1673ffffffffffffffffffffffffffffffffffffffff168152602001908152602001600020549050919050565b606060018054610ad0906128f2565b80601f0160208091040260200160405190810160405280929190818152602001828054610afc906128f2565b8015610b495780601f10610b1e57610100808354040283529160200191610b49565b820191906000526020600020905b815481529060010190602001808311610b2c57829003601f168201915b5050505050905090565b6002600860003373ffffffffffffffffffffffffffffffffffffffff1673ffffffffffffffffffffffffffffffffffffffff1681526020019081526020016000205410610bd5576040517f08c379a0000000000000000000000000000000000000000000000000000000008152600401610bcc90612c49565b60405180910390fd5b600654341015610c1a576040517f08c379a0000000000000000000000000000000000000000000000000000000008152600401610c1190612cb5565b60405180910390fd5b600073ffffffffffffffffffffffffffffffffffffffff1660098281548110610c4657610c45612cd5565b5b906000526020600020906003020160010160009054906101000a900473ffffffffffffffffffffffffffffffffffffffff1673ffffffffffffffffffffffffffffffffffffffff1614610cce576040517f08c379a0000000000000000000000000000000000000000000000000000000008152600401610cc590612d76565b60405180910390fd5b3360098281548110610ce357610ce2612cd5565b5b906000526020600020906003020160010160006101000a81548173ffffffffffffffffffffffffffffffffffffffff021916908373ffffffffffffffffffffffffffffffffffffffff160217905550600860003373ffffffffffffffffffffffffffffffffffffffff1673ffffffffffffffffffffffffffffffffffffffff1681526020019081526020016000206000815480929190610d8290612dc5565b9190505550610d9133826117ea565b50565b610da6610d9f61135e565b8383611808565b5050565b610dbb610db561135e565b8361141f565b610dfa576040517f08c379a0000000000000000000000000000000000000000000000000000000008152600401610df190612ab9565b60405180910390fd5b610e0684848484611974565b50505050565b6060610e1782611313565b6000610e216119d0565b90506000815111610e415760405180602001604052806000815250610e6c565b80610e4b846119e7565b604051602001610e5c929190612e49565b6040516020818303038152906040525b915050919050565b60075481565b610e82612077565b6009600183610e919190612e6d565b81548110610ea257610ea1612cd5565b5b9060005260206000209060030201604051806060016040529081600082018054610ecb906128f2565b80601f0160208091040260200160405190810160405280929190818152602001828054610ef7906128f2565b8015610f445780601f10610f1957610100808354040283529160200191610f44565b820191906000526020600020905b815481529060010190602001808311610f2757829003601f168201915b505050505081526020016001820160009054906101000a900473ffffffffffffffffffffffffffffffffffffffff1673ffffffffffffffffffffffffffffffffffffffff1673ffffffffffffffffffffffffffffffffffffffff168152602001600282018054610fb3906128f2565b80601f0160208091040260200160405190810160405280929190818152602001828054610fdf906128f2565b801561102c5780601f106110015761010080835404028352916020019161102c565b820191906000526020600020905b81548152906001019060200180831161100f57829003601f168201915b5050505050815250509050919050565b6000600560008473ffffffffffffffffffffffffffffffffffffffff1673ffffffffffffffffffffffffffffffffffffffff16815260200190815260200160002060008373ffffffffffffffffffffffffffffffffffffffff1673ffffffffffffffffffffffffffffffffffffffff16815260200190815260200160002060009054906101000a900460ff16905092915050565b60606009805480602002602001604051908101604052809291908181526020016000905b828210156112a05783829060005260206000209060030201604051806060016040529081600082018054611127906128f2565b80601f0160208091040260200160405190810160405280929190818152602001828054611153906128f2565b80156111a05780601f10611175576101008083540402835291602001916111a0565b820191906000526020600020905b81548152906001019060200180831161118357829003601f168201915b505050505081526020016001820160009054906101000a900473ffffffffffffffffffffffffffffffffffffffff1673ffffffffffffffffffffffffffffffffffffffff1673ffffffffffffffffffffffffffffffffffffffff16815260200160028201805461120f906128f2565b80601f016020809104026020016040519081016040528092919081815260200182805461123b906128f2565b80156112885780601f1061125d57610100808354040283529160200191611288565b820191906000526020600020905b81548152906001019060200180831161126b57829003601f168201915b505050505081525050815260200190600101906110f4565b50505050905090565b60007f01ffc9a7000000000000000000000000000000000000000000000000000000007bffffffffffffffffffffffffffffffffffffffffffffffffffffffff1916827bffffffffffffffffffffffffffffffffffffffffffffffffffffffff1916149050919050565b61131c81611ab5565b61135b576040517f08c379a000000000000000000000000000000000000000000000000000000000815260040161135290612b25565b60405180910390fd5b50565b600033905090565b816004600083815260200190815260200160002060006101000a81548173ffffffffffffffffffffffffffffffffffffffff021916908373ffffffffffffffffffffffffffffffffffffffff160217905550808273ffffffffffffffffffffffffffffffffffffffff166113d983610984565b73ffffffffffffffffffffffffffffffffffffffff167f8c5be1e5ebec7d5bd14f71427d1e84f3dd0314c0f7b2291e5b200ac8c7c3b92560405160405180910390a45050565b60008061142b83610984565b90508073ffffffffffffffffffffffffffffffffffffffff168473ffffffffffffffffffffffffffffffffffffffff16148061146d575061146c818561103c565b5b806114ab57508373ffffffffffffffffffffffffffffffffffffffff1661149384610637565b73ffffffffffffffffffffffffffffffffffffffff16145b91505092915050565b8273ffffffffffffffffffffffffffffffffffffffff166114d482610984565b73ffffffffffffffffffffffffffffffffffffffff161461152a576040517f08c379a000000000000000000000000000000000000000000000000000000000815260040161152190612f13565b60405180910390fd5b600073ffffffffffffffffffffffffffffffffffffffff168273ffffffffffffffffffffffffffffffffffffffff1603611599576040517f08c379a000000000000000000000000000000000000000000000000000000000815260040161159090612fa5565b60405180910390fd5b6115a68383836001611af6565b8273ffffffffffffffffffffffffffffffffffffffff166115c682610984565b73ffffffffffffffffffffffffffffffffffffffff161461161c576040517f08c379a000000000000000000000000000000000000000000000000000000000815260040161161390612f13565b60405180910390fd5b6004600082815260200190815260200160002060006101000a81549073ffffffffffffffffffffffffffffffffffffffff02191690556001600360008573ffffffffffffffffffffffffffffffffffffffff1673ffffffffffffffffffffffffffffffffffffffff168152602001908152602001600020600082825403925050819055506001600360008473ffffffffffffffffffffffffffffffffffffffff1673ffffffffffffffffffffffffffffffffffffffff16815260200190815260200160002060008282540192505081905550816002600083815260200190815260200160002060006101000a81548173ffffffffffffffffffffffffffffffffffffffff021916908373ffffffffffffffffffffffffffffffffffffffff160217905550808273ffffffffffffffffffffffffffffffffffffffff168473ffffffffffffffffffffffffffffffffffffffff167fddf252ad1be2c89b69c2b068fc378daa952ba7f163c4a11628f55a4df523b3ef60405160405180910390a46117a88383836001611afc565b505050565b60006002600083815260200190815260200160002060009054906101000a900473ffffffffffffffffffffffffffffffffffffffff169050919050565b611804828260405180602001604052806000815250611b02565b5050565b8173ffffffffffffffffffffffffffffffffffffffff168373ffffffffffffffffffffffffffffffffffffffff1603611876576040517f08c379a000000000000000000000000000000000000000000000000000000000815260040161186d90613011565b60405180910390fd5b80600560008573ffffffffffffffffffffffffffffffffffffffff1673ffffffffffffffffffffffffffffffffffffffff16815260200190815260200160002060008473ffffffffffffffffffffffffffffffffffffffff1673ffffffffffffffffffffffffffffffffffffffff16815260200190815260200160002060006101000a81548160ff0219169083151502179055508173ffffffffffffffffffffffffffffffffffffffff168373ffffffffffffffffffffffffffffffffffffffff167f17307eab39ab6107e8899845ad3d59bd9653f200f220920489ca2b5937696c31836040516119679190612162565b60405180910390a3505050565b61197f8484846114b4565b61198b84848484611b5d565b6119ca576040517f08c379a00000000000000000000000000000000000000000000000000000000081526004016119c1906130a3565b60405180910390fd5b50505050565b606060405180602001604052806000815250905090565b6060600060016119f684611ce4565b01905060008167ffffffffffffffff811115611a1557611a146124c8565b5b6040519080825280601f01601f191660200182016040528015611a475781602001600182028036833780820191505090505b509050600082602001820190505b600115611aaa578080600190039150507f3031323334353637383961626364656600000000000000000000000000000000600a86061a8153600a8581611a9e57611a9d6130c3565b5b04945060008503611a55575b819350505050919050565b60008073ffffffffffffffffffffffffffffffffffffffff16611ad7836117ad565b73ffffffffffffffffffffffffffffffffffffffff1614159050919050565b50505050565b50505050565b611b0c8383611e37565b611b196000848484611b5d565b611b58576040517f08c379a0000000000000000000000000000000000000000000000000000000008152600401611b4f906130a3565b60405180910390fd5b505050565b6000611b7e8473ffffffffffffffffffffffffffffffffffffffff16612054565b15611cd7578373ffffffffffffffffffffffffffffffffffffffff1663150b7a02611ba761135e565b8786866040518563ffffffff1660e01b8152600401611bc99493929190613147565b6020604051808303816000875af1925050508015611c0557506040513d601f19601f82011682018060405250810190611c0291906131a8565b60015b611c87573d8060008114611c35576040519150601f19603f3d011682016040523d82523d6000602084013e611c3a565b606091505b506000815103611c7f576040517f08c379a0000000000000000000000000000000000000000000000000000000008152600401611c76906130a3565b60405180910390fd5b805181602001fd5b63150b7a0260e01b7bffffffffffffffffffffffffffffffffffffffffffffffffffffffff1916817bffffffffffffffffffffffffffffffffffffffffffffffffffffffff191614915050611cdc565b600190505b949350505050565b600080600090507a184f03e93ff9f4daa797ed6e38ed64bf6a1f0100000000000000008310611d42577a184f03e93ff9f4daa797ed6e38ed64bf6a1f0100000000000000008381611d3857611d376130c3565b5b0492506040810190505b6d04ee2d6d415b85acef81000000008310611d7f576d04ee2d6d415b85acef81000000008381611d7557611d746130c3565b5b0492506020810190505b662386f26fc100008310611dae57662386f26fc100008381611da457611da36130c3565b5b0492506010810190505b6305f5e1008310611dd7576305f5e1008381611dcd57611dcc6130c3565b5b0492506008810190505b6127108310611dfc576127108381611df257611df16130c3565b5b0492506004810190505b60648310611e1f5760648381611e1557611e146130c3565b5b0492506002810190505b600a8310611e2e576001810190505b80915050919050565b600073ffffffffffffffffffffffffffffffffffffffff168273ffffffffffffffffffffffffffffffffffffffff1603611ea6576040517f08c379a0000000000000000000000000000000000000000000000000000000008152600401611e9d90613221565b60405180910390fd5b611eaf81611ab5565b15611eef576040517f08c379a0000000000000000000000000000000000000000000000000000000008152600401611ee69061328d565b60405180910390fd5b611efd600083836001611af6565b611f0681611ab5565b15611f46576040517f08c379a0000000000000000000000000000000000000000000000000000000008152600401611f3d9061328d565b60405180910390fd5b6001600360008473ffffffffffffffffffffffffffffffffffffffff1673ffffffffffffffffffffffffffffffffffffffff16815260200190815260200160002060008282540192505081905550816002600083815260200190815260200160002060006101000a81548173ffffffffffffffffffffffffffffffffffffffff021916908373ffffffffffffffffffffffffffffffffffffffff160217905550808273ffffffffffffffffffffffffffffffffffffffff16600073ffffffffffffffffffffffffffffffffffffffff167fddf252ad1be2c89b69c2b068fc378daa952ba7f163c4a11628f55a4df523b3ef60405160405180910390a4612050600083836001611afc565b5050565b6000808273ffffffffffffffffffffffffffffffffffffffff163b119050919050565b604051806060016040528060608152602001600073ffffffffffffffffffffffffffffffffffffffff168152602001606081525090565b6000604051905090565b600080fd5b600080fd5b60007fffffffff0000000000000000000000000000000000000000000000000000000082169050919050565b6120f7816120c2565b811461210257600080fd5b50565b600081359050612114816120ee565b92915050565b6000602082840312156121305761212f6120b8565b5b600061213e84828501612105565b91505092915050565b60008115159050919050565b61215c81612147565b82525050565b60006020820190506121776000830184612153565b92915050565b600081519050919050565b600082825260208201905092915050565b60005b838110156121b757808201518184015260208101905061219c565b838111156121c6576000848401525b50505050565b6000601f19601f8301169050919050565b60006121e88261217d565b6121f28185612188565b9350612202818560208601612199565b61220b816121cc565b840191505092915050565b6000602082019050818103600083015261223081846121dd565b905092915050565b6000819050919050565b61224b81612238565b811461225657600080fd5b50565b60008135905061226881612242565b92915050565b600060208284031215612284576122836120b8565b5b600061229284828501612259565b91505092915050565b600073ffffffffffffffffffffffffffffffffffffffff82169050919050565b60006122c68261229b565b9050919050565b6122d6816122bb565b82525050565b60006020820190506122f160008301846122cd565b92915050565b612300816122bb565b811461230b57600080fd5b50565b60008135905061231d816122f7565b92915050565b6000806040838503121561233a576123396120b8565b5b60006123488582860161230e565b925050602061235985828601612259565b9150509250929050565b61236c81612238565b82525050565b60006020820190506123876000830184612363565b92915050565b6000806000606084860312156123a6576123a56120b8565b5b60006123b48682870161230e565b93505060206123c58682870161230e565b92505060406123d686828701612259565b9150509250925092565b600060608201905081810360008301526123fa81866121dd565b905061240960208301856122cd565b818103604083015261241b81846121dd565b9050949350505050565b60006020828403121561243b5761243a6120b8565b5b60006124498482850161230e565b91505092915050565b61245b81612147565b811461246657600080fd5b50565b60008135905061247881612452565b92915050565b60008060408385031215612495576124946120b8565b5b60006124a38582860161230e565b92505060206124b485828601612469565b9150509250929050565b600080fd5b600080fd5b7f4e487b7100000000000000000000000000000000000000000000000000000000600052604160045260246000fd5b612500826121cc565b810181811067ffffffffffffffff8211171561251f5761251e6124c8565b5b80604052505050565b60006125326120ae565b905061253e82826124f7565b919050565b600067ffffffffffffffff82111561255e5761255d6124c8565b5b612567826121cc565b9050602081019050919050565b82818337600083830152505050565b600061259661259184612543565b612528565b9050828152602081018484840111156125b2576125b16124c3565b5b6125bd848285612574565b509392505050565b600082601f8301126125da576125d96124be565b5b81356125ea848260208601612583565b91505092915050565b6000806000806080858703121561260d5761260c6120b8565b5b600061261b8782880161230e565b945050602061262c8782880161230e565b935050604061263d87828801612259565b925050606085013567ffffffffffffffff81111561265e5761265d6120bd565b5b61266a878288016125c5565b91505092959194509250565b600082825260208201905092915050565b60006126928261217d565b61269c8185612676565b93506126ac818560208601612199565b6126b5816121cc565b840191505092915050565b6126c9816122bb565b82525050565b600060608301600083015184820360008601526126ec8282612687565b915050602083015161270160208601826126c0565b50604083015184820360408601526127198282612687565b9150508091505092915050565b6000602082019050818103600083015261274081846126cf565b905092915050565b6000806040838503121561275f5761275e6120b8565b5b600061276d8582860161230e565b925050602061277e8582860161230e565b9150509250929050565b600081519050919050565b600082825260208201905092915050565b6000819050602082019050919050565b600060608301600083015184820360008601526127d18282612687565b91505060208301516127e660208601826126c0565b50604083015184820360408601526127fe8282612687565b9150508091505092915050565b600061281783836127b4565b905092915050565b6000602082019050919050565b600061283782612788565b6128418185612793565b935083602082028501612853856127a4565b8060005b8581101561288f5784840389528151612870858261280b565b945061287b8361281f565b925060208a01995050600181019050612857565b50829750879550505050505092915050565b600060208201905081810360008301526128bb818461282c565b905092915050565b7f4e487b7100000000000000000000000000000000000000000000000000000000600052602260045260246000fd5b6000600282049050600182168061290a57607f821691505b60208210810361291d5761291c6128c3565b5b50919050565b7f4552433732313a20617070726f76616c20746f2063757272656e74206f776e6560008201527f7200000000000000000000000000000000000000000000000000000000000000602082015250565b600061297f602183612188565b915061298a82612923565b604082019050919050565b600060208201905081810360008301526129ae81612972565b9050919050565b7f4552433732313a20617070726f76652063616c6c6572206973206e6f7420746f60008201527f6b656e206f776e6572206f7220617070726f76656420666f7220616c6c000000602082015250565b6000612a11603d83612188565b9150612a1c826129b5565b604082019050919050565b60006020820190508181036000830152612a4081612a04565b9050919050565b7f4552433732313a2063616c6c6572206973206e6f7420746f6b656e206f776e6560008201527f72206f7220617070726f76656400000000000000000000000000000000000000602082015250565b6000612aa3602d83612188565b9150612aae82612a47565b604082019050919050565b60006020820190508181036000830152612ad281612a96565b9050919050565b7f4552433732313a20696e76616c696420746f6b656e2049440000000000000000600082015250565b6000612b0f601883612188565b9150612b1a82612ad9565b602082019050919050565b60006020820190508181036000830152612b3e81612b02565b9050919050565b7f4552433732313a2061646472657373207a65726f206973206e6f74206120766160008201527f6c6964206f776e65720000000000000000000000000000000000000000000000602082015250565b6000612ba1602983612188565b9150612bac82612b45565b604082019050919050565b60006020820190508181036000830152612bd081612b94565b9050919050565b7f566f7573206176657a2064657061737365206c65206e6f6d627265206465204e60008201527f465420616368657461626c650000000000000000000000000000000000000000602082015250565b6000612c33602c83612188565b9150612c3e82612bd7565b604082019050919050565b60006020820190508181036000830152612c6281612c26565b9050919050565b7f4d6f6e74616e742064276574686572206e6f6e20636f72726563740000000000600082015250565b6000612c9f601b83612188565b9150612caa82612c69565b602082019050919050565b60006020820190508181036000830152612cce81612c92565b9050919050565b7f4e487b7100000000000000000000000000000000000000000000000000000000600052603260045260246000fd5b7f4c65204e46542071756520766f7573206176657a2063686f697369206573742060008201527f64656a6120707269730000000000000000000000000000000000000000000000602082015250565b6000612d60602983612188565b9150612d6b82612d04565b604082019050919050565b60006020820190508181036000830152612d8f81612d53565b9050919050565b7f4e487b7100000000000000000000000000000000000000000000000000000000600052601160045260246000fd5b6000612dd082612238565b91507fffffffffffffffffffffffffffffffffffffffffffffffffffffffffffffffff8203612e0257612e01612d96565b5b600182019050919050565b600081905092915050565b6000612e238261217d565b612e2d8185612e0d565b9350612e3d818560208601612199565b80840191505092915050565b6000612e558285612e18565b9150612e618284612e18565b91508190509392505050565b6000612e7882612238565b9150612e8383612238565b925082821015612e9657612e95612d96565b5b828203905092915050565b7f4552433732313a207472616e736665722066726f6d20696e636f72726563742060008201527f6f776e6572000000000000000000000000000000000000000000000000000000602082015250565b6000612efd602583612188565b9150612f0882612ea1565b604082019050919050565b60006020820190508181036000830152612f2c81612ef0565b9050919050565b7f4552433732313a207472616e7366657220746f20746865207a65726f2061646460008201527f7265737300000000000000000000000000000000000000000000000000000000602082015250565b6000612f8f602483612188565b9150612f9a82612f33565b604082019050919050565b60006020820190508181036000830152612fbe81612f82565b9050919050565b7f4552433732313a20617070726f766520746f2063616c6c657200000000000000600082015250565b6000612ffb601983612188565b915061300682612fc5565b602082019050919050565b6000602082019050818103600083015261302a81612fee565b9050919050565b7f4552433732313a207472616e7366657220746f206e6f6e20455243373231526560008201527f63656976657220696d706c656d656e7465720000000000000000000000000000602082015250565b600061308d603283612188565b915061309882613031565b604082019050919050565b600060208201905081810360008301526130bc81613080565b9050919050565b7f4e487b7100000000000000000000000000000000000000000000000000000000600052601260045260246000fd5b600081519050919050565b600082825260208201905092915050565b6000613119826130f2565b61312381856130fd565b9350613133818560208601612199565b61313c816121cc565b840191505092915050565b600060808201905061315c60008301876122cd565b61316960208301866122cd565b6131766040830185612363565b8181036060830152613188818461310e565b905095945050505050565b6000815190506131a2816120ee565b92915050565b6000602082840312156131be576131bd6120b8565b5b60006131cc84828501613193565b91505092915050565b7f4552433732313a206d696e7420746f20746865207a65726f2061646472657373600082015250565b600061320b602083612188565b9150613216826131d5565b602082019050919050565b6000602082019050818103600083015261323a816131fe565b9050919050565b7f4552433732313a20746f6b656e20616c7265616479206d696e74656400000000600082015250565b6000613277601c83612188565b915061328282613241565b602082019050919050565b600060208201905081810360008301526132a68161326a565b905091905056fea2646970667358221220289bfe283215a72e4d1243970b09375eff2e0e39a844571e9231a6184ded9e2064736f6c634300080d0033516d5267754245726b4446364a45666b4a6f674877507879675654314d634c597a68724e505a7650646f78354a39516d516b7a37523252694e794756636b52325775444e6633377775634242673179774d33616e506e6e676934546d516d61543550745a4753444c47504d6e366173365147686958526866453952626b793938634c6a3779587943546d516d62584772766133734265666a433447516476677a7853434a3768625a737a7435623452684b6b776747445976516d5a6a706b54363868683738794b42656a7452757445444332477a32636f554756346359755456443158547736516d625071486a75706b36363972675a43754a6b76465361575872634e4862696f766f75365478386b6e5758554b516d5437583270445747733354466948356869453538697a726b665a62376f705a4a435045436b7a7a5552474c6b516d6237574743543737754e6133386f4c4a7152416b6a4478515a736a754b6e52465933524b5050426538674d76516d647253534d51726d705a644669484d57467276536f75384d377573393933666f336d48756341363557553153516d59664a4e4850424d7a6f6176363543776f5a3338654a467053527457554d354d424b70366a546b6d384c7173",
  "immutableReferences": {},
  "source": "// contracts/CryptoCharacterFactory.sol\r\n// SPDX-License-Identifier: MIT\r\npragma solidity ^0.8.13;\r\n\r\nimport \"@openzeppelin/contracts/token/ERC721/ERC721.sol\";\r\n\r\ncontract CryptoCharacter is ERC721 {\r\n    \r\n    uint256 public cost = 1 ether;  \r\n    uint256 public maxSupply = 2;\r\n    mapping (address => uint256) totalSupplyPerOwner;\r\n    \r\n    constructor(string memory _name, string memory _symbol, uint256 _cost) \r\n        ERC721(_name, _symbol) {        \r\n        cost = _cost;\r\n\r\n        characters.push(Character(\"Nicolas\", address(0x0), \"Qmb7WGCT77uNa38oLJqRAkjDxQZsjuKnRFY3RKPPBe8gMv\"));\r\n        characters.push(Character(\"Nicolas2\", address(0x0), \"QmQkz7R2RiNyGVckR2WuDNf37wucBBg1ywM3anPnngi4Tm\"));\r\n        characters.push(Character(\"Guillaume\", address(0x0), \"QmaT5PtZGSDLGPMn6as6QGhiXRhfE9Rbky98cLj7yXyCTm\"));\r\n        characters.push(Character(\"Guillaume2\", address(0x0), \"QmdrSSMQrmpZdFiHMWFrvSou8M7us993fo3mHucA65WU1S\"));\r\n        characters.push(Character(\"Gaelle\", address(0x0), \"QmYfJNHPBMzoav65CwoZ38eJFpSRtWUM5MBKp6jTkm8Lqs\"));\r\n        characters.push(Character(\"Antoine\", address(0x0), \"QmZjpkT68hh78yKBejtRutEDC2Gz2coUGV4cYuTVD1XTw6\"));\r\n        characters.push(Character(\"Lydia\", address(0x0), \"QmbXGrva3sBefjC4GQdvgzxSCJ7hbZszt5b4RhKkwgGDYv\"));\r\n        characters.push(Character(\"Paul-Olivier\", address(0x0), \"QmRguBErkDF6JEfkJogHwPxygVT1McLYzhrNPZvPdox5J9\"));\r\n        characters.push(Character(\"Ruben\", address(0x0), \"QmT7X2pDWGs3TFiH5hiE58izrkfZb7opZJCPECkzzURGLk\"));\r\n        characters.push(Character(\"Jules\", address(0x0), \"QmbPqHjupk669rgZCuJkvFSaWXrcNHbiovou6Tx8knWXUK\"));\r\n    }\r\n\r\n    struct Character {\r\n        string name;\r\n        address owner;\r\n        string img;\r\n    }\r\n\r\n    // Liste des Characters crs\r\n    Character[] public characters; \r\n\r\n    function mint(uint256 _id) public payable {\r\n        require(totalSupplyPerOwner[msg.sender] < 2, \"Vous avez depasse le nombre de NFT achetable\");\r\n        require(msg.value >= cost, \"Montant d'ether non correct\");\r\n        require(characters[_id].owner == address(0x0), \"Le NFT que vous avez choisi est deja pris\");\r\n\r\n        characters[_id].owner = msg.sender;\r\n        totalSupplyPerOwner[msg.sender]++;\r\n        _safeMint(msg.sender, _id); \r\n    }\r\n\r\n    function getCharacter(uint256 _id) external view returns (Character memory) {\r\n        return characters[_id - 1];\r\n    }\r\n\r\n    function getCharacters() external view returns (Character[] memory) {\r\n        return characters;\r\n    }\r\n}",
  "sourcePath": "D:\\IIM\\A5\\Blockchain\\iim-vue-web3\\contracts\\CryptoCharacter.sol",
  "compiler": {
    "name": "solc",
    "version": "0.8.13+commit.abaa5c0e.Emscripten.clang"
  },
  "schemaVersion": "3.4.13",
  "updatedAt": "2023-04-06T15:00:33.474Z",
  "networkType": "ethereum",
  "devdoc": {
    "kind": "dev",
    "methods": {
      "approve(address,uint256)": {
        "details": "See {IERC721-approve}."
      },
      "balanceOf(address)": {
        "details": "See {IERC721-balanceOf}."
      },
      "getApproved(uint256)": {
        "details": "See {IERC721-getApproved}."
      },
      "isApprovedForAll(address,address)": {
        "details": "See {IERC721-isApprovedForAll}."
      },
      "name()": {
        "details": "See {IERC721Metadata-name}."
      },
      "ownerOf(uint256)": {
        "details": "See {IERC721-ownerOf}."
      },
      "safeTransferFrom(address,address,uint256)": {
        "details": "See {IERC721-safeTransferFrom}."
      },
      "safeTransferFrom(address,address,uint256,bytes)": {
        "details": "See {IERC721-safeTransferFrom}."
      },
      "setApprovalForAll(address,bool)": {
        "details": "See {IERC721-setApprovalForAll}."
      },
      "supportsInterface(bytes4)": {
        "details": "See {IERC165-supportsInterface}."
      },
      "symbol()": {
        "details": "See {IERC721Metadata-symbol}."
      },
      "tokenURI(uint256)": {
        "details": "See {IERC721Metadata-tokenURI}."
      },
      "transferFrom(address,address,uint256)": {
        "details": "See {IERC721-transferFrom}."
      }
    },
    "version": 1
  },
  "userdoc": {
    "kind": "user",
    "methods": {},
    "version": 1
  }
}